{
  "contractName": "Counter",
  "abi": [
    {
      "inputs": [],
      "name": "count",
      "outputs": [
        {
          "internalType": "uint256",
          "name": "",
          "type": "uint256"
        }
      ],
      "stateMutability": "view",
      "type": "function",
      "constant": true
    },
    {
      "inputs": [],
      "name": "increment",
      "outputs": [],
      "stateMutability": "nonpayable",
      "type": "function"
    },
    {
      "inputs": [],
      "name": "getCount",
      "outputs": [
        {
          "internalType": "uint256",
          "name": "",
          "type": "uint256"
        }
      ],
      "stateMutability": "view",
      "type": "function",
      "constant": true
    }
  ],
  "bytecode": "0x60806040525f8055348015610012575f80fd5b50610177806100205f395ff3fe608060405234801561000f575f80fd5b506004361061003f575f3560e01c806306661abd14610043578063a87d942c14610061578063d09de08a1461007f575b5f80fd5b61004b610089565b60405161005891906100c8565b60405180910390f35b61006961008e565b60405161007691906100c8565b60405180910390f35b610087610096565b005b5f5481565b5f8054905090565b60015f808282546100a7919061010e565b92505081905550565b5f819050919050565b6100c2816100b0565b82525050565b5f6020820190506100db5f8301846100b9565b92915050565b7f4e487b71000000000000000000000000000000000000000000000000000000005f52601160045260245ffd5b5f610118826100b0565b9150610123836100b0565b925082820190508082111561013b5761013a6100e1565b5b9291505056fea26469706673582212205365cc0c98095da95866cdf1e37e4341d933d31083d9701196ddec6ff308d9fa64736f6c63430008140033",
  "immutableReferences": {},
  "source": "// SPDX-License-Identifier: MIT\r\npragma solidity >=0.5.17;\r\n\r\ncontract Counter {\r\n\r\n    // Public variable of type unsigned int to keep the number of counts\r\n    uint256 public count = 0;\r\n\r\n    // Function that increments our counter\r\n    function increment() public {\r\n        count += 1;\r\n    }\r\n\r\n    // Not necessary getter to get the count value\r\n    function getCount() public view returns (uint256) {\r\n        return count;\r\n    }\r\n}",
  "sourcePath": "C:\\E\\COMMON\\junior\\spring\\blockChain\\blockchainlab2023\\lab4\\contracts\\hello.sol",
  "compiler": {
    "name": "solc",
    "version": "0.8.20+commit.a1b79de6.Emscripten.clang"
  },
  "schemaVersion": "3.4.14",
  "updatedAt": "2023-06-16T06:09:49.913Z",
  "networkType": "ethereum",
  "devdoc": {
    "kind": "dev",
    "methods": {},
    "version": 1
  },
  "userdoc": {
    "kind": "user",
    "methods": {},
    "version": 1
  }
}