{
  "contractName": "Voting",
  "abi": [
    {
      "inputs": [
        {
          "internalType": "address",
          "name": "",
          "type": "address"
        }
      ],
      "name": "hasVoted",
      "outputs": [
        {
          "internalType": "bool",
          "name": "",
          "type": "bool"
        }
      ],
      "stateMutability": "view",
      "type": "function",
      "constant": true
    },
    {
      "inputs": [
        {
          "internalType": "bytes32",
          "name": "",
          "type": "bytes32"
        }
      ],
      "name": "voteCount",
      "outputs": [
        {
          "internalType": "uint256",
          "name": "",
          "type": "uint256"
        }
      ],
      "stateMutability": "view",
      "type": "function",
      "constant": true
    },
    {
      "inputs": [
        {
          "internalType": "bytes32",
          "name": "candidate",
          "type": "bytes32"
        }
      ],
      "name": "vote",
      "outputs": [],
      "stateMutability": "nonpayable",
      "type": "function"
    }
  ],
  "bytecode": "0x608060405234801561000f575f80fd5b506104508061001d5f395ff3fe608060405234801561000f575f80fd5b506004361061003f575f3560e01c806309eef43e14610043578063a69beaba14610073578063f28bddf61461008f575b5f80fd5b61005d60048036038101906100589190610255565b6100bf565b60405161006a919061029a565b60405180910390f35b61008d600480360381019061008891906102e6565b6100db565b005b6100a960048036038101906100a491906102e6565b6101e2565b6040516100b69190610329565b60405180910390f35b5f602052805f5260405f205f915054906101000a900460ff1681565b5f803373ffffffffffffffffffffffffffffffffffffffff1673ffffffffffffffffffffffffffffffffffffffff1681526020019081526020015f205f9054906101000a900460ff1615610164576040517f08c379a000000000000000000000000000000000000000000000000000000000815260040161015b9061039c565b60405180910390fd5b6001805f8381526020019081526020015f205f82825461018491906103e7565b9250508190555060015f803373ffffffffffffffffffffffffffffffffffffffff1673ffffffffffffffffffffffffffffffffffffffff1681526020019081526020015f205f6101000a81548160ff02191690831515021790555050565b6001602052805f5260405f205f915090505481565b5f80fd5b5f73ffffffffffffffffffffffffffffffffffffffff82169050919050565b5f610224826101fb565b9050919050565b6102348161021a565b811461023e575f80fd5b50565b5f8135905061024f8161022b565b92915050565b5f6020828403121561026a576102696101f7565b5b5f61027784828501610241565b91505092915050565b5f8115159050919050565b61029481610280565b82525050565b5f6020820190506102ad5f83018461028b565b92915050565b5f819050919050565b6102c5816102b3565b81146102cf575f80fd5b50565b5f813590506102e0816102bc565b92915050565b5f602082840312156102fb576102fa6101f7565b5b5f610308848285016102d2565b91505092915050565b5f819050919050565b61032381610311565b82525050565b5f60208201905061033c5f83018461031a565b92915050565b5f82825260208201905092915050565b7f596f75206861766520616c726561647920766f7465642e0000000000000000005f82015250565b5f610386601783610342565b915061039182610352565b602082019050919050565b5f6020820190508181035f8301526103b38161037a565b9050919050565b7f4e487b71000000000000000000000000000000000000000000000000000000005f52601160045260245ffd5b5f6103f182610311565b91506103fc83610311565b9250828201905080821115610414576104136103ba565b5b9291505056fea2646970667358221220d459a83e7796085aa7bb1628df864835e60ca7954055f0bfba5b122eb9c90c2b64736f6c63430008140033",
  "immutableReferences": {},
  "source": "// SPDX-License-Identifier: MIT\r\npragma solidity ^0.8.0;\r\n\r\ncontract Voting {\r\n    mapping(address => bool) public hasVoted;\r\n    mapping(bytes32 => uint256) public voteCount;\r\n\r\n    function vote(bytes32 candidate) public {\r\n        require(!hasVoted[msg.sender], \"You have already voted.\");\r\n        voteCount[candidate] += 1;\r\n        hasVoted[msg.sender] = true;\r\n    }\r\n}\r\n",
  "sourcePath": "C:\\E\\COMMON\\junior\\spring\\blockChain\\blockchainlab2023\\lab4\\contracts\\voting.sol",
  "compiler": {
    "name": "solc",
    "version": "0.8.20+commit.a1b79de6.Emscripten.clang"
  },
  "schemaVersion": "3.4.14",
  "updatedAt": "2023-06-16T06:09:49.916Z",
  "networkType": "ethereum",
  "devdoc": {
    "kind": "dev",
    "methods": {},
    "version": 1
  },
  "userdoc": {
    "kind": "user",
    "methods": {},
    "version": 1
  }
}